:03000000020DFAF4
:0C0DFA00787FE4F6D8FD758120020E41E0
:0E1562002030090107051500000A01010A01E9
:1010D4004100210046000039392E38363146004996
:1010E400244750524D434100280041004000410034
:1010F4002A0041002B0041002D004100290041003D
:10110400460052000FD781CECD995D5FC1DFDDDB94
:101114001F568F5E5A000852002E3F065B4F666DC5
:0C1124007D077F6F777C395E7971004099
:10151000E4FEEEC39F500AE4FD0DEDB4FAFB0E802D
:01152000F1D9
:0115210022A7
:0B1570000000007F0B7EBEDEFEDFFCF3
:01157B00224D
:0515A700007F0BDFFED8
:0115AC00221C
:09157C00D291D290C290C29122DA
:09158500C291C290D291D29022D1
:0F11D30012157C7FAE1211E2EAFF1211E2AF0398
:0211E200AE0756
:1011E400E4FDEEA805088002C333D8FC30E704D23E
:1011F400908002C290D2911215A7C2910DEDB4084D
:10120400E1D290D2911215A7309004C2038002D289
:0612140003C2910215A7C0
:10140200E4FED290FDC2911215A7D2911215A7EE59
:1014120025E0FE3090010E1215A70DEDB408E6C2CC
:0314220091AF0681
:0114250022A4
:0714FB00121402AE07D20635
:0E150200A2069290D2911215A7C2910215A7CF
:10130B00AC05AB0712157C7FD01211E22003037FD3
:10131B000022AF031211E22003037F0022AF04125D
:10132B0011E22003037F00221215851215A7121557
:04133B00A77F012265
:1014CD0012157C7FD11211E22003037F002212142A
:0614DD00FB121585AF06AD
:0114E30022E6
:02142600AC0711
:1014280012157C7FD01211E22003037F0022AF0443
:0C1438001211E22003037F00221214CDE9
:011444002285
:08149C0075F00A84EE25F0FD55
:1014A400EFD394064005EF94004005AE0512130BEC
:0114B4002215
:10152200AB07AA06AC051211D3AF041211E20215E1
:011532008533
:0414B500AB07AA06D1
:1014B9001211D312157C7FAF1211E21214FB12150F
:0314C90085AF06E6
:0114CC0022FD
:10125C001215707F0D121426EF640160307D017F32
:10126C000D12130BE4FDFF1214A47D037F01121465
:10127C00A47D197F021214A47D157F041214A47D81
:0E128C00017F051214A47D167F061214A42201
:100E8600E4FF121426EFC4540F75F00AA4FEEF54C3
:100E96000F2E900029F07F01121426EFC4540F750F
:100EA600F00AA4FEEF540F2E90002DF07F021214CC
:100EB60026EFC4540F75F00AA4FEEF540F2E9000CF
:100EC6002BF07F04121426EFC4540F75F00AA4FE0B
:100ED600EF540F2E90002AF07F05121426EFC4540B
:100EE6000F75F00AA4FEEF540F2E900040F07F0617
:100EF600121426EFC4540F75F00AA4FEEF540F2EF9
:040F0600900028F03F
:010F0A0022C4
:100CD800900029E0FF75F00A84C454F0FEEF75F027
:100CE8000A84EE25F0FDE4FF1214A490002DE0FF25
:100CF80075F00A84C454F0FEEF7F0112149C900032
:100D08002BE0FF75F00A84C454F0FEEF7F02121442
:100D18009C90002AE0FF75F00A84C454F0FEEF7539
:100D2800F00A84EE25F0FD7F041214A4900040E040
:100D3800FF75F00A84C454F0FEEF75F00A84EE25BE
:100D4800F0FD7F051214A4900028E0FF75F00A84D6
:100D5800C454F0FEEF75F00A84EE25F0FD7F06021C
:020D680014A4D1
:100A1B00900022E075F00AA4FEA3E02E24F09000D3
:100A2B002BF0900024E075F00AA4FEA3E02E24F036
:100A3B0090002DF0900026E075F00AA4FEA3E02EA6
:100A4B0024F0FE900029F0900008E075F00AA4FD58
:100A5B00A3E02D24F090002AF090000AE075F00A34
:100A6B00A4FDA3E02D24F0900040F090000CE07565
:100A7B00F00AA4FDA3E02D24F0900028F0EED3940F
:100A8B003B4017E4A3F090002DE004F0E0D3943B3F
:100A9B004008E4F090002BE004F090002BE02408D9
:100AAB00F0E0D394174061E024E8F090002AE004D2
:100ABB00F0900040E024FC602024FE601C24FD60CC
:100ACB001824FE601424097014900028E05403705D
:100ADB00047F1D800A7F1C80067F1E80027F1F9073
:100AEB00002AE0D39F4021900040E004F090002AC0
:100AFB007401F0900040E0D3940C400C900028E07F
:080B0B0004F09000407401F0B9
:010B130022BF
:1005C800900001E0642E7057A3E024D0FFE434FFCC
:1005D800FE7C007D6412039CAA06AB07900000E035
:1005E80024D0FFE434FFFE7C037DE812039CEF2B4C
:1005F800FBEE3AFA900003E024D0FFE434FFFE7CDF
:10060800007D0A12039CEF2BFFEE3AFEA3E024D0F4
:10061800FDEC34FFCD2FFFED3EFEE4FD0206F89021
:100628000002E0642E6003020700900000E024D07E
:10063800FFE434FFFEE4FCFD900041120536900013
:1006480041E0FCA3E0FDA3E0FEA3E0FFE47B107A19
:1006580027F9F81203FA900041120536900001E0DC
:1006680024D0FFE434FFFE7C037DE812039CE4FC05
:10067800FD900041E0F8A3E0F9A3E0FAA3E02FFF22
:10068800EA3EFEED39FDEC38FCC004A905AA06AB2C
:1006980007900003E024D0FFE434FFFE7C007D6473
:1006A80012039CE4FDD000EB2FFFEA3EFEED39FD7E
:1006B800EC38FCC004A905AA06AB07A3E024D0FFC8
:1006C800E434FFFE7C007D0A12039CE4FDD000EBBD
:1006D8002FFBEA3EFAED39F9EC38F8A3E024D0FF15
:1006E800E434FFFEEB2FFFEA3EFEED39FDEC38FC6B
:1006F800900041120536800A900041120542000F11
:10070800423F900041E0FCA3E0FDA3E0FEA3E0FF30
:10071800E41202C47B567A0E79ED783F12011EE48A
:10072800FBFA79A0784012002DE4FBFA7920784191
:10073800120227120302900041120536E47B107A58
:1007480027F9F8900041E0FCA3E0FDA3E0FEA3E058
:10075800FF120485E4FBFAF9F8C3120525601F901F
:100768000041E0FCA3E0FDA3E0FEA3E02405FFE4D4
:100778003EFEE43DFDE43CFC900041120536E47B7E
:1007880064FAF9F8900041E0FCA3E0FDA3E0FEA3C1
:10079800E0FF120485900006EFF0FB900041A3A350
:1007A800A3E0FFEB75F064A4FEC3EF9E900007F092
:0107B800221E
:08158E007F6C7E91DEFEDFFCA4
:011596002232
:0E15440000007F167E037DE3DDFEDEFCDFFA95
:011552002276
:1013D70090002D75F00AE084240FF582E43400F5BF
:0313E70083E0FFA1
:1013EA007E08C295EF3392947801EF08800123D8E2
:0713FA00FDFFD29500DEEBC0
:0114010022C8
:100D6A00C29690002BE075F00A84FD700590001F72
:100D7A00800A740F2DF582E43400F583E0FF121324
:100D8A00EA900029E090002B30E015E075F00A8423
:100D9A00740F25F0F582E43400F583E044208011D5
:100DAA00E075F00A84740F25F0F582E43400F583C7
:100DBA00E0FF1213EA1213D7900021E090002D6091
:100DCA0013E075F00A84740F25F0F582E43400F517
:100DDA0083E08013E075F00A84740F25F0F582E44D
:100DEA003400F583E04420FF1213EAC297D2972217
:10113100C2961213D790002DE075F00A84740F2522
:10114100F01213E19000291213DA900021E09000CF
:10115100296013E075F00A84740F25F0F582E434F8
:1011610000F583E08013E075F00A84740F25F0F533
:1011710082E43400F583E04420FF1213EAC297D2DF
:021181009722B3
:100F0B00C296900040E075F00A84FD700590001FBA
:100F1B00800A740F2DF582E43400F583E0FF121381
:100F2B00EA900040E075F00A84740F25F0F582E436
:100F3B003400F583E04420FF1213EA90002A1213C9
:100F4B00DA900021E090002A6013E075F00A8474B7
:100F5B000F25F0F582E43400F583E08013E075F0A3
:100F6B000A84740F25F0F582E43400F583E0442005
:090F7B00FF1213EAC297D297227B
:10118300C296900011E0FF1213EA90000FE0FF12E5
:1011930013EA9000281213DA900021E090002860EF
:1011A30013E075F00A84740F25F0F582E43400F53A
:1011B30083E08013E075F00A84740F25F0F582E470
:1011C3003400F583E04420FF1213EAC297D297223A
:10092100C296900006E0FFC39464506FEF75F00A21
:1009310084FD700590001F800A740F2DF582E43448
:1009410000F583E0FF1213EA900006E075F00A84D7
:10095100740F25F0F582E43400F583E04420FF12A2
:1009610013EA9000071213DA900021E0900007606B
:1009710014E075F00A84740F25F0F582E43400F573
:1009810083E0020A12E075F00A84740F25F0F58203
:10099100E43400F583E04420020A1290000675F069
:1009A100641213DD900006E0FD75F0648475F06457
:1009B100A4FFC3ED9FFFE495F0FE7C007D0A1203C6
:1009C100AE740F2FF58274003E1213E6900006E01C
:1009D10075F00A84740F25F0F582E43400F583E0A4
:1009E1004420FF1213EA900021E09000076011E01B
:1009F10075F00A84240FF582E43400F583E0801158
:100A0100E075F00A84240FF582E43400F583E044B4
:0A0A110020FF1213EAC297D29722C9
:10144500C29690001FE0FF1213EAE0FF1213EAE0D4
:0E145500FF1213EAE0FF1213EAC297D29722A9
:10146300C296900020E0FF1213EAE0FF1213EAE0B5
:0E147300FF1213EAE0FF1213EAC297D297228B
:10148100C2967F4C1213EA7F4C1213EA7F4C12135F
:0B149100EA7F4C1213EAC297D29722A8
:10153300D2B7D2B600000000C2B600000000C2B7A6
:011543002285
:1014E400C2B600000000D2B700000000D2B600006F
:0714F4000000C2B7C2B622DE
:1012D500C2B7E4FEEF30E704D2B68002C2B6000022
:1012E5000000D2B700000000C2B7EF25E0FF0EEE08
:1012F500B408E1D2B600000000D2B700000000C279
:05130500B7000000002C
:01130A0022C0
:1013A600D2B6E4FFFED2B700000000EF25E0FF3022
:1013B600B6010FC2B7000000000EEEB408E7C2B6D1
:1013C60000000000D2B700000000C2B70000000015
:0113D60022F4
:0E1553001215337F491212D51213A61214E49A
:011561002267
:10000300E075F00A84242EF582E43400F583E0FDE4
:020013007F6C00
:0E0015001215331212D5AF051212D50214E4E3
:0715A000E4FD7F4802001585
:10133F00900046E0C454F004FD7F481200157D492B
:10134F007F68120015E0242EF582E43400F583E067
:10135F00FD7F6A120015900046E01200087D497F5C
:04136F006E020015F5
:10107400900046E0C454F004FD7F4812001590002F
:101084002DE075F00A84242EF582E43400F583E023
:10109400FD7F6812001590002DE075F00A84742E0F
:1010A40025F0F582E43400F583E0FD7F6A12001533
:1010B400900029120003900029E075F00A84742E30
:1010C40025F0F582E43400F583E0FD7F6E0200151F
:100F8400900029E090004630E007E0C454F004806B
:100F940006E0C454F02409FD7F4812001590002B8C
:100FA400E075F00A84FC700590003E800A742E2CD3
:100FB400F582E43400F583E0FD7F681200159000AB
:100FC4002BE075F00A84742E25F0F582E43400F5E4
:100FD40083E0FD7F6A12001590002D12000390003B
:100FE4002DE075F00A84742E25F0F582E43400F5C2
:080FF40083E0FD7F6E02001591
:100FFC00900046E0C454F004FD7F481200159000A8
:10100C0040E075F00A84FC700590003E8019EC708D
:10101C000590003E8011900040E075F00A84242E6B
:10102C00F582E43400F583E0FD7F68120015900032
:10103C0040E075F00A84742E25F0F582E43400F556
:10104C0083E0FD7F6A12001590002A1200039000C5
:10105C002AE075F00A84742E25F0F582E43400F54C
:08106C0083E0FD7F6E02001518
:10121A00900046E0C454F004FD7F48120015900087
:10122A0030E0FD7F6812001590002EE0FD7F6A1203
:10123A000015900028120003900028E075F00A8437
:10124A00742E25F0F582E43400F583E0FD7F6E020A
:02125A0000157D
:100BF700900046E0C454F004FD7F481200159000B1
:100C070006E0FFC39464504EEF75F00A84FC70054C
:100C170090003E800A742E2CF582E43400F583E0C0
:100C2700FD7F68120015900006E075F00A84742EA7
:100C370025F0F582E43400F583E04480FD7F6A12F5
:100C47000015900007120003900007E075F00A8472
:100C5700742E25F0806C900006E075F06484242ED5
:100C6700F582E43400F583E0FD7F681200159000FB
:100C770006E0FD75F0648475F064A4FFC3ED9FFF83
:100C8700E495F0FE7C007D0A1203AE742E2FF582E8
:100C970074003EF583E0FD7F6A120015900006E0C0
:100CA70075F00A84742E25F0F582E43400F583E0AC
:100CB7004480FD7F6C120015900007E075F00A84F0
:100CC700242EF582E43400F583E0FD7F6E120015D3
:010CD70022FA
:10129A00E4F594F593F592F591F596F595F5B2F591
:1012AA00B1F5B4F5B3F5CAF5C9F5CCF5CBF5E2F568
:1012BA00E1E5A2543FF5A275985075D7E075D6FEC0
:0B12CA00758E14438E01D2ACD2AF220F
:091597002004FDEFD204F59922B5
:1013730090004FEBF0A3EAF0A3E9F090004FE0FBFD
:10138300A3E0FAA3E0F9120383601790004FA3E4EC
:1013930075F0011203E4A9F0FA120383FF12159703
:0313A30080D922CC
:03002300020B14B9
:0B0B1400C0E0C083C082C0D075D008D4
:100B1F00C2AC209803020BECC298AF9990002CE066
:100B2F00FEC39406501C74492EF582E43400F583FD
:100B3F00E090002CB50F06E004F0020BECE4F0029D
:100B4F000BECEFB42C0E900045E004F090000EE497
:100B5F00F0020BEC900045E0FEB4011790000EE0A0
:100B6F00C394065078E0FD04F074222DF582E4342E
:100B7F0000804CEEB40210EF900021B441057401D7
:100B8F00F0805AE4F08056900045E0FEB4071D90C7
:100B9F000021E0604890000EE0C39406503FE0FD56
:100BAF0004F074002DF582E434008013EEB40915BF
:100BBF0090000EE0FE04F074082EF582E43400F588
:100BCF0083EFF08018900045E0D3940A400F900017
:0F0BDF002CE4F090000EF0900045F0B202D2AC82
:090BEE00D0D0D082D083D0E032D7
:1007B9009000537401F0A3F0C205E4900046F012D2
:1007C900129AE4900052F0900052E0FFC39408504E
:1007D90025900046EFF030E00512148180031214D1
:1007E9004512133F121544E4FD7F4812001590008D
:1007F90052E004F080D1E4900052F0900052E0C33E
:10080900940A501D900021E0B40111120A1B120C28
:10081900D8900052E004F012146380DF1214818032
:10082900DA121445E4900052F0A2929200A2939237
:100839000112158E120A1B1205C8900053E0FD70B3
:10084900051211318035EDB40102802C900053E07E
:10085900FCB40205120F0B8022ECB40305121183BC
:100869008019900053E0FDB40405121463800CED67
:10087900B405051209218003120D6A120E86900033
:1008890054E0FC7005121074802BECB40102802234
:10089900900054E0FBB40205120FFC8018EBB4037E
:1008A9000512121A800F900054E0B4040512133F88
:1008B9008003120F84900021E0B4012120001E2042
:1008C900011B120A1B120CD812133F1214811215A4
:1008D900441215441215A0121445121544309216EB
:1008E900200013900053E0C394055005E004F08004
:1008F90005E4900053F0309316200113900054E062
:10090900C394055005E004F08005E4900054F0908C
:080919000052E004F002083274
:1000260002036EE86480F8E933E83360110460F097
:10003600ED33EC337009E8FCE9FDEAFEEBFF220440
:1000460060DED3EB9FEA9EE99DE8C2E78CF0C2F73B
:1000560095F0400CE8CCF8E9CDF9EACEFAEBCFFB07
:1000660012033985D0F05804700320D5B3E8047024
:10007600075002B2D502037892D5EC0460F7E4CCBF
:10008600C0E0C398F8603B94186008400DD0E0FBD0
:10009600020350E4FBFAC9FC8028E830E406E4C910
:1000A600FBE4CAFCE830E305E4C9CACBFCE8540724
:1000B6006010F8C3E913F9EA13FAEB13FBEC13FC2F
:1000C600D8F130F52FC3E49CFCEF9BFFEE9AFEEDD2
:1000D60099FDD0E0FBEF4E4D4C701222DB0302037C
:1000E60075EC2CFCEF33FFEE33FEED33FDED30E720
:1000F600EB020350EF2BFFEE3AFEED39FDD0E0FBAD
:1001060050130BBB0003020378ED13FDEE13FEEF55
:0801160013FFEC13FC0203507F
:10011E00EC4D6011E8497017ED33EC3304600DE4DB
:10012E00FCFFFEFD22E933E8330470F802036E1281
:10013E00033958046009E4CC248150062850090282
:10014E000378284003020375C0E0EB4A7044B9807F
:10015E0006D0E0FB020364EF4E701CBD8008EBFF7F
:10016E00EAFEE9FD80EBE98DF0A4FEE5F002020760
:10017E00E9CDF9EAFEEBFFEF89F0A4FCE5F0CE89BC
:10018E00F0A42EFFE435F0CD89F0A42DFEE435F079
:10019E008067EF4E7005BD80D780C3EF8BF0A4ACA7
:1001AE00F0EE8BF0A42CFCE435F0F8EF8AF0A42CE2
:1001BE00E5F038FCE433CB8DF0A42CFCE5F03BF8F5
:1001CE00EE8AF0A42CFCE5F038F8E433CF89F0A4E5
:1001DE002CFCE5F038CF3400CE89F0A42FFFE5F0EB
:1001EE003EFEE433C98DF0A42EFEE5F039CD8AF043
:1001FE00A42FFFE5F03EFEE43DFD33D0E0FB5007BB
:10020E000BBB000F020378EC2CFCEF33FFEE33FE3A
:06021E00ED33FD02035068
:10022400020378EC5D046005E85904700302036E70
:10023400120339580460F6EC4860F2EC7004FDFED9
:10024400FF22C860DB2481C85009C39860025006AD
:100254000203759850CAF582E9294B4A7005AB82AE
:1002640002036475F0007C1A7880C3EF9BEE9AED6C
:1002740099400DC3EF9BFFEE9AFEED99FDE842F025
:10028400DC23ACF0D0E0FFD0E0FED0E0FDAB822078
:10029400E7101BEB60BAEC2CFCEF33FFEE33FEED02
:1002A40033FD020350E803F830E705C0F075F000B1
:1002B400EF2FFFEE33FEED33FD40B830E7C280AAE6
:1002C40075F020800E75F010800575F0087D007EB5
:1002D400007F003392D530D503120517EC3340105C
:1002E400EF33FFEE33FEED33FDEC33FCD5F0ED22BE
:0E02F400E5F0247EA2D513CC92E7CDCEFF22FA
:10030200EDD2E7CD33EC3392D524814006E4FFFEF3
:10031200FDFC22FCE4CFCECDCC24E0501174FF8052
:10032200EDC3CC13CCCD13CDCE13CECF13CF0470EF
:07033200F030D5DE020517D3
:10033900E9D2E7C933E833F892D5EDD2E7CD33EC0A
:0703490033FC5002B2D52283
:10035000EC30E7100FBF000C0EBE00080DBD00040E
:100360000BEB6014A2D5EB13FCED92E7FD2274FFBA
:10037000FCFDFEFF22E480F8A2D574FF13FC7D8013
:03038000E480EF27
:100E06000207B9E493A3F8E493A34003F68001F242
:100E160008DFF48029E493A3F85407240CC8C333ED
:100E2600C4540F4420C8834004F456800146F6DFBC
:100E3600E4800B01020408102040809010D4E47E68
:100E4600019360BCA3FF543F30E509541FFEE493B1
:100E5600A360010ECF54C025E060A840B8E493A378
:100E6600FAE493A3F8E493A3C8C582C8CAC583CAA3
:100E7600F0A3C8C582C8CAC583CADFE9DEE780BE5B
:0111300000BE
:10038300BB010689828A83E0225002E722BBFE0278
:09039300E32289828A83E49322AB
:10039C00EF8DF0A4A8F0CF8CF0A428CE8DF0A42E75
:0203AC00FE222F
:1003AE00C2D5EC30E709B2D5E4C39DFDE49CFCEE6A
:1003BE0030E715B2D5E4C39FFFE49EFE120573C36A
:1003CE00E49DFDE49CFC800312057330D507C3E465
:0603DE009FFFE49EFE22D9
:1003E400A3F8E0C5F025F0F0E582158270021583CC
:0603F400E0C838F0E82229
:1003FA00E88FF0A4CC8BF0A42CFCE98EF0A42CFCA2
:10040A008AF0EDA42CFCEA8EF0A4CDA8F08BF0A41F
:10041A002DCC3825F0FDE98FF0A42CCD35F0FCEB7E
:10042A008EF0A4FEA9F0EB8FF0A4CFC5F02ECD3943
:0F043A00FEE43CFCEAA42DCE35F0FDE43CFC22B0
:1004490075F008758200EF2FFFEE33FECD33CDCC6A
:1004590033CCC58233C5829BED9AEC99E5829840ED
:100469000CF582EE9BFEED9AFDEC99FC0FD5F0D6CA
:10047900E4CEFBE4CDFAE4CCF9A88222B800C1B9F4
:100489000059BA002DEC8BF084CFCECDFCE5F0CB32
:10049900F97818EF2FFFEE33FEED33FDEC33FCEB6B
:1004A90033FB10D703994004EB99FB0FD8E5E4F926
:1004B900FA227818EF2FFFEE33FEED33FDEC33FC13
:1004C900C933C910D7059BE99A4007EC9BFCE99A07
:1004D900F90FD8E0E4C9FAE4CCFB2275F010EF2F4C
:1004E900FFEE33FEED33FDCC33CCC833C810D7074C
:1004F9009BEC9AE899400AED9BFDEC9AFCE899F887
:0E0509000FD5F0DAE4CDFBE4CCFAE4C8F92219
:0E051700C3E49FFFE49EFEE49DFDE49CFC22F5
:10052500EB9FF5F0EA9E42F0E99D42F0E89C45F02C
:0105350022A3
:0C053600ECF0A3EDF0A3EEF0A3EFF02238
:10054200A8828583F0D083D08212055912055912F0
:100552000559120559E473E493A3C583C5F0C58315
:10056200C8C582C8F0A3C583C5F0C583C8C582C803
:010572002266
:10057300BC000BBE0029EF8DF084FFADF022E4CC6C
:10058300F875F008EF2FFFEE33FEEC33FCEE9DEC35
:10059300984005FCEE9DFE0FD5F0E9E4CEFD22ED7B
:1005A300F8F5F0EE8420D21CFEADF075F008EF2FC5
:1005B300FFED33FD4007985006D5F0F222C398FDB6
:0505C3000FD5F0EA2253
:00000001FF
